:020000040000FA
:0600000087EF08F012007A
:020006000000F8
:08000800D9CFE6FFE1CFD9FFDB
:10001000080EE126330EDF6EDE52320EDD6E280E44
:10002000F36E020EF3CFDBFF0C0EF36E030EF3CF75
:10003000DBFF010EF36E040EF3CFDBFF060EF36E53
:10004000050EF3CFDBFF060EDB6A070EDB6A0F013E
:100050003C6B966A3B6B0A0EE66E4AEC08F0E55282
:10006000D9CF14F0DACF15F0070EDB500F011424AE
:10007000E96E000E1520EA6EEF5013E0D9CF14F0B0
:10008000DACF15F0070EDBCFF3FFDB2AF350142491
:10009000E96E000E1520EA6EEF50E66E0CD8E552C0
:1000A000DFD7080EE15C02E2E16AE552E16EE5525B
:1000B000E7CFD9FF1200D9CFE6FFE1CFD9FF849077
:1000C00084928494FE0EDB380F0B0F0BE66E25D85E
:1000D000E552FE0EDB500F0BE66E1FD8E55236D808
:1000E000E552E7CFD9FF1200D9CFE6FFE1CFD9FF24
:1000F000848084928494FE0EDB380F0B0F0BE66E27
:100100000CD8E552FE0EDB500F0BE66E06D8E5521A
:100110001DD8E552E7CFD9FF1200D9CFE6FFE1CFD6
:10012000D9FF800E9516FE0EDBCFE6FFF00E83148E
:10013000E552E710836E8484020EE66EA3EC08F0AD
:10014000E5528494E552E7CFD9FF1200D9CFE6FFFC
:10015000E1CFD9FF030EE1260F0E95128482849021
:100160008494848400008350100D010EF3CFDBFFD4
:100170008494848400000F0E8314DF6E8494010E37
:10018000DB50DF10E76E020EE7CFDBFF020EDBBEB7
:10019000E8D7030EE15C02E2E16AE552E16EE55266
:1001A000E7CFD9FF1200D9CFE6FFE1CFD9FFFE0E8E
:1001B000DBCFE6FF80DFE552FB0EDBCFF6FFFC0E68
:1001C000DBCFF7FFFD0EDBCFF8FF0800F55016E0A0
:1001D000D950FB0FE96EFF0EDA20EA6EEFCFF6FF83
:1001E000EE2AEFCFF7FF000EEE22EFCFF8FFEE2260
:1001F0000800F550E66E78DFE552DED7E552E7CF2E
:10020000D9FF1200D9CFE6FFE1CFD9FFFE0EDBCF39
:10021000E6FF51DFE552FC0EDBCFE9FFFD0EDBCF41
:10022000EAFFEF500EE0FC0EDBCFE9FFDB2AFD0E0C
:10023000DBCFEAFF01E3DB2AEF50E66E55DFE55244
:10024000EAD7E552E7CFD9FF1200D9CFE6FFE1CFD9
:10025000D9FFE652FC0EDBCFE6FF2DDFE552DF6A69
:10026000FB0EDB50DF5C0FE2FD0EDBCFE9FFDB2A8C
:10027000FE0EDBCFEAFF01E3DB2AEF50E66E34DF50
:10028000E552DF2AEDD7E552E552E7CFD9FF12005C
:10029000D9CFE6FFE1CFD9FFE652FE0EDBCFE6FF76
:1002A0000ADFE552DF6AFD0EDB50DF5C06E2200E5E
:1002B000E66E1ADFE552DF2AF6D7E552E552E7CFC0
:1002C000D9FF1200D9CFE6FFE1CFD9FFE652DF6AAE
:1002D000FC0EDB50DF5C12E2300E146EDF50E76E76
:1002E000FD0EDBCFE9FFFE0EDBCFEAFFE750E9268C
:1002F000000EEA221450EF26DF2AEAD7E552E55233
:10030000E7CFD9FF1200D9CFE6FFE1CFD9FFE65200
:10031000DF6AFC0EDB50DF5C12E20F0E146EDF5062
:10032000E76EFD0EDBCFE9FFFE0EDBCFEAFFE75005
:10033000E926000EEA221450EF16DF2AEAD7E5522A
:10034000E552E7CFD9FF1200D9CFE6FFE1CFD9FFC1
:100350000A0E146E14C00CF0FE0EDBCF07F095EC05
:1003600008F00350300FE66E020EE76EFC0EDBCF96
:10037000E9FFFD0EDBCFEAFFE750E926000EEA2297
:10038000E552E750EF6E0A0E146E14C00CF0FE0E2C
:10039000DBCF07F095EC08F0FE0E07C0DBFF0A0E7E
:1003A000146E14C00CF0FE0EDBCF07F095EC08F0D5
:1003B0000350300FE66E010EE76EFC0EDBCFE9FF57
:1003C000FD0EDBCFEAFFE750E926000EEA22E552F8
:1003D000E750EF6E0A0E146E14C00CF0FE0EDBCF69
:1003E00007F095EC08F00750300FE66EFC0EDBCFFF
:1003F000E9FFFD0EDBCFEAFFE552E750EF6EE55275
:10040000E7CFD9FF1200D9CFE6FFE1CFD9FFE652FF
:10041000DF6A040EDF5C3EE2FD0EDBCF14F0FE0E61
:10042000DBCF15F00A0E0B6E0C6A14C006F015C077
:1004300007F061EC08F002C014F003C015F0300EB4
:100440001426000E1522040ED880DF54E76EFB0E32
:10045000DBCFE9FFFC0EDBCFEAFFE750E926000E19
:10046000EA2214C0EFFF0A0E146E156AFD0EDBCFF0
:1004700006F0FE0EDBCF07F014C00BF015C00CF039
:1004800061EC08F0FD0E06C0DBFFFE0E07C0DBFFCF
:10049000DF2ABFD7300EE76EFD0EDBCF14F0FE0E65
:1004A000DBCF15F0E7501426000E1522FB0EDBCF34
:1004B000E9FFFC0EDBCFEAFF14C0EFFFE552E55287
:1004C000E7CFD9FF1200D9CFE6FFE1CFD9FFFD0E6C
:1004D000DBCFE9FFFE0EDBCFEAFFEF500F0B186E0C
:1004E000196A18BE1968640E1902F3CF19F01802C0
:1004F000F3CF18F0F4501926010EE76EFD0EDBCF96
:10050000E9FFFE0EDBCFEAFFE750E926000EEA2204
:10051000EF500F0B0A0DF3CF1AF01B6A1ABE1B68BF
:1005200018501A24166E19501B20176E020EE76E13
:10053000FD0EDBCFE9FFFE0EDBCFEAFFE750E92639
:10054000000EEA22EF500F0B1C6E1D6A1CBE1D68C8
:1005500016501C24146E17501D20156E14C0F3FF86
:1005600015C0F4FF00D0E552E7CFD9FF1200D9CF74
:10057000E6FFE1CFD9FFFD0EDBCFE9FFFE0EDBCFBB
:10058000EAFFEF500F0B1A6E1B6A1ABE1B68E80ECB
:100590001B02F3CF1BF0030E1A02F3501B26E80ECA
:1005A0001A02F3CF1AF0F4501B26010EE76EFD0E6F
:1005B000DBCFE9FFFE0EDBCFEAFFE750E926000EB6
:1005C000EA22EF500F0B640DF3CF1CF01D6A1CBE26
:1005D0001D681A501C24186E1B501D20196E020E27
:1005E000E76EFD0EDBCFE9FFFE0EDBCFEAFFE75043
:1005F000E926000EEA22EF500F0B0A0DF3CF1EF092
:100600001F6A1EBE1F6818501E24166E19501F2028
:10061000176E030EE76EFD0EDBCFE9FFFE0EDBCF9C
:10062000EAFFE750E926000EEA22EF500F0B206E9A
:10063000216A20BE216816502024146E17502120F4
:10064000156E14C0F3FF15C0F4FF00D0E552E7CFDC
:10065000D9FF1200D9CFE6FFE1CFD9FFFE0EDB387C
:100660000F0B3009E66EFC0EDBCFE9FFDB2AFD0E37
:10067000DBCFEAFF01E3DB2AE552E750EF6EFE0E27
:10068000DB500F0B3009E66EFC0EDBCFE9FFDB061B
:10069000FD0EDBCFEAFF01E2DB06E552E750EF6E2D
:1006A000E552E7CFD9FF1200500ED36E9B9E9B9C64
:1006B0008BDAAADC860E146E100E156E166A14C044
:1006C000E6FF15C0E6FF16C0E6FF800EE66E6BDDA6
:1006D000E552E552E552E552790E146E100E156E94
:1006E000166A14C0E6FF15C0E6FF16C0E6FFC00E8E
:1006F000E66E59DDE552E552E552E552E80EE66E4A
:100700004AEC08F0E552680E146E100E156E166A6B
:1007100014C0E6FF15C0E6FF16C0E6FF800EE66EC9
:1007200042DDE552E552E552E552560E146E100ECA
:10073000156E166A14C0E6FF15C0E6FF16C0E6FF88
:10074000C00EE66E30DDE552E552E552E55281A07D
:10075000FED7D76AD66AD58E81B0FED7D6CF68F0DD
:10076000D7CF60F00001616B626B636B080E1F0BEB
:1007700060C014F061C015F062C016F063C017F0DD
:1007800007E0D8901436153616361736E806F9E124
:1007900068C018F0196A1A6A1B6A18AE03D0196883
:1007A0001A681B68145018100001606F155019105A
:1007B000616F16501A10626F17501B10636FD59E31
:1007C000186A196AAA0E1A6E430E1B6E60C004F0F6
:1007D00061C005F062C006F063C007F0EEEC05F002
:1007E00005C01CF006C01DF007C01EF008C01FF0B9
:1007F0001CC00AF01DC00BF01EC00CF01FC00DF095
:1008000018C005F019C006F01AC007F01BC008F0A8
:100810005CEC06F005C014F006C015F007C016F039
:1008200008C017F00A6A240E0B6E740E0C6E490E87
:100830000D6E14C005F015C006F016C007F017C005
:1008400008F009EC06F005C064F006C065F007C0CA
:1008500066F008C067F0CD0E0A6ECC0E0B6E0C6E03
:100860003D0E0D6E64C005F065C006F066C007F071
:1008700067C008F0F8EC06F0010A05E17F0E806E13
:10088000818C818E818ACD0E0A6ECC0E0B6E0C6E21
:100890003D0E0D6E64C005F065C006F066C007F041
:1008A00067C008F0F8EC06F0010A19E0CD0E0A6EF8
:1008B000CC0E0B6E4C0E0C6E3E0E0D6E64C005F031
:1008C00065C006F066C007F067C008F0F8EC06F0F7
:1008D000010A05E17F0E806E818C819E818ACD0E9A
:1008E0000A6ECC0E0B6E4C0E0C6E3E0E0D6E64C07E
:1008F00005F065C006F066C007F067C008F0F8ECC8
:1009000006F0010A18E09A0E0A6E990E0B6E0C6E34
:100910003E0E0D6E64C005F065C006F066C007F0BF
:1009200067C008F0F8EC06F0010A05E17F0E806E62
:10093000819C819E818A9A0E0A6E990E0B6E0C6EB6
:100940003E0E0D6E64C005F065C006F066C007F08F
:1009500067C008F0F8EC06F0010A18E0CD0E0A6E48
:10096000CC0E0B6E0C6E3E0E0D6E64C005F065C0B5
:1009700006F066C007F067C008F0F8EC06F0010A60
:1009800005E17F0E806E819C819E819ACD0E0A6E5C
:10099000CC0E0B6E0C6E3E0E0D6E64C005F065C085
:1009A00006F066C007F067C008F0F8EC06F0010A30
:1009B00016E00A6A0B6A0C6A3F0E0D6E64C005F001
:1009C00065C006F066C007F067C008F0F8EC06F0F6
:1009D000010A05E13F0E806E819C819E819A0A6A20
:1009E0000B6A0C6A3F0E0D6E64C005F065C006F020
:1009F00066C007F067C008F0F8EC06F0010A19E0DD
:100A00009A0E0A6E990E0B6E190E0C6E3F0E0D6E3D
:100A100064C005F065C006F066C007F067C008F066
:100A2000F8EC06F0010A05E11F0E806E819C819EA4
:100A3000819A9A0E0A6E990E0B6E190E0C6E3F0E6D
:100A40000D6E64C005F065C006F066C007F067C0B3
:100A500008F0F8EC06F0010A17E0330E0A6E0B6E90
:100A60000C6E3F0E0D6E64C005F065C006F066C0EA
:100A700007F067C008F0F8EC06F0010A05E10F0E78
:100A8000806E819C819E819A330E0A6E0B6E0C6E75
:100A90003F0E0D6E64C005F065C006F066C007F03D
:100AA00067C008F0F8EC06F0010A19E0CD0E0A6EF6
:100AB000CC0E0B6E4C0E0C6E3F0E0D6E64C005F02E
:100AC00065C006F066C007F067C008F0F8EC06F0F5
:100AD000010A05E1070E806E819C819E819ACD0EF0
:100AE0000A6ECC0E0B6E4C0E0C6E3F0E0D6E64C07B
:100AF00005F065C006F066C007F067C008F0F8ECC6
:100B000006F0010A17E0660E0A6E0B6E0C6E3F0EC1
:100B10000D6E64C005F065C006F066C007F067C0E2
:100B200008F0F8EC06F0010A05E1030E806E819CE6
:100B3000819E819A0A6A0B6A800E0C6E3F0E0D6EC2
:100B400064C005F065C006F066C007F067C008F035
:100B5000F8EC06F0010A05E0010E806E819C819E92
:100B6000819A690EE66E000EE66E0A6A0B6AC80E7E
:100B70000C6E420E0D6E64C005F065C006F066C0D6
:100B800007F067C008F05CEC06F0C9EC06F006C0A0
:100B900014F007C015F014C0E6FF15C0E6FF33DC03
:100BA000E552E552E552E552030EE66E8A0EE66E18
:100BB0006B0EE66E000EE66E25EC01F0E552E55296
:100BC000E552E552C4D51200010E936E0F01396B48
:0C0BD000D56A946A3A6B926A386B120086
:040BDC000F9E0CD08C
:100BE0000F9E07AE09D0046C051E061E071EE86A9C
:100BF0000522062207220F8E07C001F006C000F072
:100C000005C013F004C012F09E0E026E036A72EF6C
:100C100007F00F6AAEEC07F0C6EC07F00FB656EF20
:100C200007F00FA205D00FBA56EF07F05DEF07F0FF
:100C30000FBA69EF07F00FA005D00FB856EF07F015
:100C400069EF07F00FB85DEF07F0036A7F0E082425
:100C5000026EE86A03220D50025EE86A035A1A0E19
:100C6000106E086A126A136A006A016A0A50055E09
:100C70000B50065A0C50075A000E085A09E70A5042
:100C800005260B5006220C500722000E082201D028
:100C9000128AD8900536063607360836D8901236AE
:100CA000133600360136102EE1D707500610051016
:100CB000D8A4128A72EF07F00F6AAEEC07F0C6EC08
:100CC00007F00FB656EF07F00FA205D00FB856EF9A
:100CD00007F05DEF07F00FAA05D00FB056EF07F051
:100CE0005DEF07F00FB002D00FA802D069EF07F058
:100CF000036A0D500824026EE86A03227E0E025E2B
:100D0000E86A035A126A136A006A016A0C50070201
:100D1000F4CF01F0F3CF00F00B500702F35013268D
:100D2000F4500022000E01220C500602F35013264C
:100D3000F4500022000E01220A500702F35012263E
:100D4000F4501322000E002201220B500602F35031
:100D50001226F4501322000E002201220C5005022C
:100D6000F3501226F4501322000E002201220A50E2
:100D70000602F4501226000E1322002201220B500C
:100D80000502F4501226000E13220022012272EFF7
:100D900007F00F6AAEEC07F00FB6D3EF06F00FA224
:100DA0000ED00FB405D07F0E076EFF0E066E1FD05B
:100DB000800E076E066A1BD0076A066A18D00FB04D
:100DC000FBD78F0E0860EDD77E0E0864F5D78E0E28
:100DD000085C05E0D89007320632082AF8D70FA43D
:100DE00006D0066C071EE86A072207AEE5D7120098
:100DF00001EC07F00FB6000C0FB0000C0FA4000CB4
:100E0000010C0F6AAEEC07F0C6EC07F00FB612004B
:100E10000FAE08D00FA004D00FA802D00F80120090
:100E20000F9012000D50085C0BE10C50075C08E1BC
:100E30000B50065C05E10A50055C02E10F801200D0
:100E4000D8A002D00F8E10D008500DC008F00D6E43
:100E500007500CC007F00C6E06500BC006F00B6E6E
:100E600005500AC005F00A6E0D50085C10E0FF0F37
:100E700009E00F900FB403D00FAE0F8412000FAE35
:100E80000F9412000D2AD8900C320B320A320A50FD
:100E9000055E0B50065A0C50075A07BEEAD7D89089
:100EA000053606360736082EF8D7C8D77F0E086EE7
:100EB000FF0E076E066E056E12007F0E0FBEFF0E50
:100EC000086E02D07F0E086E800E076E066A056AF5
:100ED000F3D70FAE04D0800E086E076AF7D7086A02
:100EE000076AF4D70150001013101210F8E003BE87
:100EF000F0D701BE0CD002500310EBE0D8901236B0
:100F00001336003601360206D8A00306F2D7035086
:100F1000D4E10228D2E012AE11D07F0E121402E109
:100F200013A00CD0132AE86A0022012207E3D8801C
:100F3000013200321332022A0228BFE00250C9E017
:100F400013C005F000C006F00134076E0230086ED1
:100F50000732089E0FBE088E5CEF07F00736083692
:100F600002E30F840F7E06E10F80086A076A066AB3
:100F7000056A1200082803E0D88007321200D890D2
:100F8000073202E10F8212000F8612000C360D3676
:100F900002E30F8C0F7E06E10F880D6A0C6A0B6A64
:100FA0000A6A12000D2803E0D8800C321200D89093
:080FB0000C32EAE10F8A120085
:080FB800060EF66E000EF76E46
:100FC000000EF86E00010900F550716F0900F55030
:100FD000726F03E1716701D03DD00900F5506C6F6D
:100FE0000900F5506D6F0900F5506E6F090009009A
:100FF000F550E96E0900F550EA6E09000900090094
:10100000F5506F6F0900F550706F09000900F6CFB9
:1010100073F0F7CF74F0F8CF75F06CC0F6FF6DC0C9
:10102000F7FF6EC0F8FF00016F5302E1705307E055
:101030000900F550EE6E6F07F8E27007F9D773C03C
:10104000F6FF74C0F7FF75C0F8FF00017107000ECE
:06105000725BBFD7120025
:0A1056002020202020202020202050
:10106000202020202020200044697374616E636575
:10107000203D20202020636D004368726973202684
:10108000205A69616400446576656C6F7065642000
:0310900062790082
:0C109400FF0EE350236EEF0E01D0F30EB0
:1010A000E76EE72E51EF08F00C0E226EE76AE72E8E
:1010B00057EF08F0222E56EF08F0232E4FEF08F0DE
:0210C00012001C
:0E10C200036A026A100EE76ED89006360736F3
:1010D000023603360B50025C0C50035805E30B50EC
:0E10E000025E0C50035A062AE72EF0D71200CB
:0210EE00000EF2
:1010F000F36E00EE00F0060E01D81200EA6002D096
:0E110000EE6AFCD7F350E9601200EE6AFCD7ED
:02110E0015EEDC
:1011100000F025EE00F0F86A0F9CDCEC07F0AEEC76
:0A11200008F054EC03F0FBD71200B6
:06112A00036A080EE76EE7
:10113000D890073603360C50035C02E3036E072A8F
:06114000E72EF7D71200B4
:0A114600FF0EE350E84E1200000017
:0C11500000D000D000D0E82EFAD712002A
:02115C0012007F
:00000001FF
